{
  "contracts/Real_Estate.sol": {
    "Real_estate": {
      "abi": [
        {
          "inputs": [],
          "stateMutability": "nonpayable",
          "type": "constructor"
        },
        {
          "anonymous": false,
          "inputs": [],
          "name": "houseListedForSale",
          "type": "event"
        },
        {
          "anonymous": false,
          "inputs": [],
          "name": "houseSold",
          "type": "event"
        },
        {
          "inputs": [
            {
              "internalType": "uint256",
              "name": "_id",
              "type": "uint256"
            }
          ],
          "name": "buyHouse",
          "outputs": [],
          "stateMutability": "payable",
          "type": "function"
        },
        {
          "inputs": [
            {
              "internalType": "uint256",
              "name": "_id",
              "type": "uint256"
            }
          ],
          "name": "checkHouseList",
          "outputs": [
            {
              "components": [
                {
                  "internalType": "uint256",
                  "name": "id",
                  "type": "uint256"
                },
                {
                  "internalType": "string",
                  "name": "Name",
                  "type": "string"
                },
                {
                  "internalType": "string",
                  "name": "Location",
                  "type": "string"
                },
                {
                  "internalType": "string",
                  "name": "houseType",
                  "type": "string"
                },
                {
                  "internalType": "uint256",
                  "name": "amount",
                  "type": "uint256"
                },
                {
                  "internalType": "address",
                  "name": "owner",
                  "type": "address"
                },
                {
                  "internalType": "bool",
                  "name": "isAvailable",
                  "type": "bool"
                }
              ],
              "internalType": "struct Real_estate.House",
              "name": "",
              "type": "tuple"
            }
          ],
          "stateMutability": "view",
          "type": "function"
        },
        {
          "inputs": [
            {
              "internalType": "string",
              "name": "_name",
              "type": "string"
            },
            {
              "internalType": "string",
              "name": "_location",
              "type": "string"
            },
            {
              "internalType": "uint256",
              "name": "_amount",
              "type": "uint256"
            },
            {
              "internalType": "string",
              "name": "_houseType",
              "type": "string"
            }
          ],
          "name": "listHouse",
          "outputs": [],
          "stateMutability": "nonpayable",
          "type": "function"
        }
      ],
      "evm": {
        "bytecode": {
          "linkReferences": {},
          "object": "608060405234801561001057600080fd5b50336000806101000a81548173ffffffffffffffffffffffffffffffffffffffff021916908373ffffffffffffffffffffffffffffffffffffffff160217905550611227806100606000396000f3fe6080604052600436106100345760003560e01c806324b7e0d214610039578063eddc426914610062578063ef4483b91461007e575b600080fd5b34801561004557600080fd5b50610060600480360381019061005b91906108ff565b6100bb565b005b61007c600480360381019061007791906109ba565b61030b565b005b34801561008a57600080fd5b506100a560048036038101906100a091906109ba565b6104ac565b6040516100b29190610b7b565b60405180910390f35b60008054906101000a900473ffffffffffffffffffffffffffffffffffffffff1673ffffffffffffffffffffffffffffffffffffffff163373ffffffffffffffffffffffffffffffffffffffff1614610149576040517f08c379a000000000000000000000000000000000000000000000000000000000815260040161014090610bfa565b60405180910390fd5b600073ffffffffffffffffffffffffffffffffffffffff163373ffffffffffffffffffffffffffffffffffffffff16036101b8576040517f08c379a00000000000000000000000000000000000000000000000000000000081526004016101af90610c66565b60405180910390fd5b600082036101fb576040517f08c379a00000000000000000000000000000000000000000000000000000000081526004016101f290610cd2565b60405180910390fd5b60016002600082825461020e9190610d21565b9250508190555060006001600060025481526020019081526020016000209050828160040181905550818160030190816102489190610f61565b508481600101908161025a9190610f61565b508381600201908161026c9190610f61565b50600254816000018190555060018160050160146101000a81548160ff021916908315150217905550338160050160006101000a81548173ffffffffffffffffffffffffffffffffffffffff021916908373ffffffffffffffffffffffffffffffffffffffff1602179055507f395f3c9c88dafe0428690f92132ab7d5cfbb62f439f72ccc4ccc415b8f9ab51960405160405180910390a15050505050565b60006001600083815260200190815260200160002090508060040154341015610369576040517f08c379a00000000000000000000000000000000000000000000000000000000081526004016103609061107f565b60405180910390fd5b8060040154670de0b6b3a76400006103819190610d21565b34146103c2576040517f08c379a00000000000000000000000000000000000000000000000000000000081526004016103b9906110eb565b60405180910390fd5b8060040154346103d2919061110b565b5060008160050160009054906101000a900473ffffffffffffffffffffffffffffffffffffffff1673ffffffffffffffffffffffffffffffffffffffff16826004015460405161042190611170565b60006040518083038185875af1925050503d806000811461045e576040519150601f19603f3d011682016040523d82523d6000602084013e610463565b606091505b50509050806104a7576040517f08c379a000000000000000000000000000000000000000000000000000000000815260040161049e906111d1565b60405180910390fd5b505050565b6104b461071a565b6000600160008481526020019081526020016000209050806040518060e0016040529081600082015481526020016001820180546104f190610d84565b80601f016020809104026020016040519081016040528092919081815260200182805461051d90610d84565b801561056a5780601f1061053f5761010080835404028352916020019161056a565b820191906000526020600020905b81548152906001019060200180831161054d57829003601f168201915b5050505050815260200160028201805461058390610d84565b80601f01602080910402602001604051908101604052809291908181526020018280546105af90610d84565b80156105fc5780601f106105d1576101008083540402835291602001916105fc565b820191906000526020600020905b8154815290600101906020018083116105df57829003601f168201915b5050505050815260200160038201805461061590610d84565b80601f016020809104026020016040519081016040528092919081815260200182805461064190610d84565b801561068e5780601f106106635761010080835404028352916020019161068e565b820191906000526020600020905b81548152906001019060200180831161067157829003601f168201915b50505050508152602001600482015481526020016005820160009054906101000a900473ffffffffffffffffffffffffffffffffffffffff1673ffffffffffffffffffffffffffffffffffffffff1673ffffffffffffffffffffffffffffffffffffffff1681526020016005820160149054906101000a900460ff161515151581525050915050919050565b6040518060e001604052806000815260200160608152602001606081526020016060815260200160008152602001600073ffffffffffffffffffffffffffffffffffffffff1681526020016000151581525090565b6000604051905090565b600080fd5b600080fd5b600080fd5b600080fd5b6000601f19601f8301169050919050565b7f4e487b7100000000000000000000000000000000000000000000000000000000600052604160045260246000fd5b6107d68261078d565b810181811067ffffffffffffffff821117156107f5576107f461079e565b5b80604052505050565b600061080861076f565b905061081482826107cd565b919050565b600067ffffffffffffffff8211156108345761083361079e565b5b61083d8261078d565b9050602081019050919050565b82818337600083830152505050565b600061086c61086784610819565b6107fe565b90508281526020810184848401111561088857610887610788565b5b61089384828561084a565b509392505050565b600082601f8301126108b0576108af610783565b5b81356108c0848260208601610859565b91505092915050565b6000819050919050565b6108dc816108c9565b81146108e757600080fd5b50565b6000813590506108f9816108d3565b92915050565b6000806000806080858703121561091957610918610779565b5b600085013567ffffffffffffffff8111156109375761093661077e565b5b6109438782880161089b565b945050602085013567ffffffffffffffff8111156109645761096361077e565b5b6109708782880161089b565b9350506040610981878288016108ea565b925050606085013567ffffffffffffffff8111156109a2576109a161077e565b5b6109ae8782880161089b565b91505092959194509250565b6000602082840312156109d0576109cf610779565b5b60006109de848285016108ea565b91505092915050565b6109f0816108c9565b82525050565b600081519050919050565b600082825260208201905092915050565b60005b83811015610a30578082015181840152602081019050610a15565b60008484015250505050565b6000610a47826109f6565b610a518185610a01565b9350610a61818560208601610a12565b610a6a8161078d565b840191505092915050565b600073ffffffffffffffffffffffffffffffffffffffff82169050919050565b6000610aa082610a75565b9050919050565b610ab081610a95565b82525050565b60008115159050919050565b610acb81610ab6565b82525050565b600060e083016000830151610ae960008601826109e7565b5060208301518482036020860152610b018282610a3c565b91505060408301518482036040860152610b1b8282610a3c565b91505060608301518482036060860152610b358282610a3c565b9150506080830151610b4a60808601826109e7565b5060a0830151610b5d60a0860182610aa7565b5060c0830151610b7060c0860182610ac2565b508091505092915050565b60006020820190508181036000830152610b958184610ad1565b905092915050565b600082825260208201905092915050565b7f4f6e6c79206f776e65722063616e20706572666f726d20746869730000000000600082015250565b6000610be4601b83610b9d565b9150610bef82610bae565b602082019050919050565b60006020820190508181036000830152610c1381610bd7565b9050919050565b7f41646472657373207a65726f2064657465637465640000000000000000000000600082015250565b6000610c50601583610b9d565b9150610c5b82610c1a565b602082019050919050565b60006020820190508181036000830152610c7f81610c43565b9050919050565b7f416d6f756e74206d7573742062652067726561746572207468616e207a65726f600082015250565b6000610cbc602083610b9d565b9150610cc782610c86565b602082019050919050565b60006020820190508181036000830152610ceb81610caf565b9050919050565b7f4e487b7100000000000000000000000000000000000000000000000000000000600052601160045260246000fd5b6000610d2c826108c9565b9150610d37836108c9565b9250828201905080821115610d4f57610d4e610cf2565b5b92915050565b7f4e487b7100000000000000000000000000000000000000000000000000000000600052602260045260246000fd5b60006002820490506001821680610d9c57607f821691505b602082108103610daf57610dae610d55565b5b50919050565b60008190508160005260206000209050919050565b60006020601f8301049050919050565b600082821b905092915050565b600060088302610e177fffffffffffffffffffffffffffffffffffffffffffffffffffffffffffffffff82610dda565b610e218683610dda565b95508019841693508086168417925050509392505050565b6000819050919050565b6000610e5e610e59610e54846108c9565b610e39565b6108c9565b9050919050565b6000819050919050565b610e7883610e43565b610e8c610e8482610e65565b848454610de7565b825550505050565b600090565b610ea1610e94565b610eac818484610e6f565b505050565b5b81811015610ed057610ec5600082610e99565b600181019050610eb2565b5050565b601f821115610f1557610ee681610db5565b610eef84610dca565b81016020851015610efe578190505b610f12610f0a85610dca565b830182610eb1565b50505b505050565b600082821c905092915050565b6000610f3860001984600802610f1a565b1980831691505092915050565b6000610f518383610f27565b9150826002028217905092915050565b610f6a826109f6565b67ffffffffffffffff811115610f8357610f8261079e565b5b610f8d8254610d84565b610f98828285610ed4565b600060209050601f831160018114610fcb5760008415610fb9578287015190505b610fc38582610f45565b86555061102b565b601f198416610fd986610db5565b60005b8281101561100157848901518255600182019150602085019450602081019050610fdc565b8683101561101e578489015161101a601f891682610f27565b8355505b6001600288020188555050505b505050505050565b7f696e73756666696369656e7420616d6f756e7400000000000000000000000000600082015250565b6000611069601383610b9d565b915061107482611033565b602082019050919050565b600060208201905081810360008301526110988161105c565b9050919050565b7f4d7573742070617920726571756972656420616d6f756e740000000000000000600082015250565b60006110d5601883610b9d565b91506110e08261109f565b602082019050919050565b60006020820190508181036000830152611104816110c8565b9050919050565b6000611116826108c9565b9150611121836108c9565b925082820390508181111561113957611138610cf2565b5b92915050565b600081905092915050565b50565b600061115a60008361113f565b91506111658261114a565b600082019050919050565b600061117b8261114d565b9150819050919050565b7f4661696c65640000000000000000000000000000000000000000000000000000600082015250565b60006111bb600683610b9d565b91506111c682611185565b602082019050919050565b600060208201905081810360008301526111ea816111ae565b905091905056fea26469706673582212207d8578ea952a43e08c751f047a17e887de7f1f4c5d0a534c362cc5f6d3bfc8c664736f6c63430008180033",
          "opcodes": "PUSH1 0x80 PUSH1 0x40 MSTORE CALLVALUE DUP1 ISZERO PUSH2 0x10 JUMPI PUSH1 0x0 DUP1 REVERT JUMPDEST POP CALLER PUSH1 0x0 DUP1 PUSH2 0x100 EXP DUP2 SLOAD DUP2 PUSH20 0xFFFFFFFFFFFFFFFFFFFFFFFFFFFFFFFFFFFFFFFF MUL NOT AND SWAP1 DUP4 PUSH20 0xFFFFFFFFFFFFFFFFFFFFFFFFFFFFFFFFFFFFFFFF AND MUL OR SWAP1 SSTORE POP PUSH2 0x1227 DUP1 PUSH2 0x60 PUSH1 0x0 CODECOPY PUSH1 0x0 RETURN INVALID PUSH1 0x80 PUSH1 0x40 MSTORE PUSH1 0x4 CALLDATASIZE LT PUSH2 0x34 JUMPI PUSH1 0x0 CALLDATALOAD PUSH1 0xE0 SHR DUP1 PUSH4 0x24B7E0D2 EQ PUSH2 0x39 JUMPI DUP1 PUSH4 0xEDDC4269 EQ PUSH2 0x62 JUMPI DUP1 PUSH4 0xEF4483B9 EQ PUSH2 0x7E JUMPI JUMPDEST PUSH1 0x0 DUP1 REVERT JUMPDEST CALLVALUE DUP1 ISZERO PUSH2 0x45 JUMPI PUSH1 0x0 DUP1 REVERT JUMPDEST POP PUSH2 0x60 PUSH1 0x4 DUP1 CALLDATASIZE SUB DUP2 ADD SWAP1 PUSH2 0x5B SWAP2 SWAP1 PUSH2 0x8FF JUMP JUMPDEST PUSH2 0xBB JUMP JUMPDEST STOP JUMPDEST PUSH2 0x7C PUSH1 0x4 DUP1 CALLDATASIZE SUB DUP2 ADD SWAP1 PUSH2 0x77 SWAP2 SWAP1 PUSH2 0x9BA JUMP JUMPDEST PUSH2 0x30B JUMP JUMPDEST STOP JUMPDEST CALLVALUE DUP1 ISZERO PUSH2 0x8A JUMPI PUSH1 0x0 DUP1 REVERT JUMPDEST POP PUSH2 0xA5 PUSH1 0x4 DUP1 CALLDATASIZE SUB DUP2 ADD SWAP1 PUSH2 0xA0 SWAP2 SWAP1 PUSH2 0x9BA JUMP JUMPDEST PUSH2 0x4AC JUMP JUMPDEST PUSH1 0x40 MLOAD PUSH2 0xB2 SWAP2 SWAP1 PUSH2 0xB7B JUMP JUMPDEST PUSH1 0x40 MLOAD DUP1 SWAP2 SUB SWAP1 RETURN JUMPDEST PUSH1 0x0 DUP1 SLOAD SWAP1 PUSH2 0x100 EXP SWAP1 DIV PUSH20 0xFFFFFFFFFFFFFFFFFFFFFFFFFFFFFFFFFFFFFFFF AND PUSH20 0xFFFFFFFFFFFFFFFFFFFFFFFFFFFFFFFFFFFFFFFF AND CALLER PUSH20 0xFFFFFFFFFFFFFFFFFFFFFFFFFFFFFFFFFFFFFFFF AND EQ PUSH2 0x149 JUMPI PUSH1 0x40 MLOAD PUSH32 0x8C379A000000000000000000000000000000000000000000000000000000000 DUP2 MSTORE PUSH1 0x4 ADD PUSH2 0x140 SWAP1 PUSH2 0xBFA JUMP JUMPDEST PUSH1 0x40 MLOAD DUP1 SWAP2 SUB SWAP1 REVERT JUMPDEST PUSH1 0x0 PUSH20 0xFFFFFFFFFFFFFFFFFFFFFFFFFFFFFFFFFFFFFFFF AND CALLER PUSH20 0xFFFFFFFFFFFFFFFFFFFFFFFFFFFFFFFFFFFFFFFF AND SUB PUSH2 0x1B8 JUMPI PUSH1 0x40 MLOAD PUSH32 0x8C379A000000000000000000000000000000000000000000000000000000000 DUP2 MSTORE PUSH1 0x4 ADD PUSH2 0x1AF SWAP1 PUSH2 0xC66 JUMP JUMPDEST PUSH1 0x40 MLOAD DUP1 SWAP2 SUB SWAP1 REVERT JUMPDEST PUSH1 0x0 DUP3 SUB PUSH2 0x1FB JUMPI PUSH1 0x40 MLOAD PUSH32 0x8C379A000000000000000000000000000000000000000000000000000000000 DUP2 MSTORE PUSH1 0x4 ADD PUSH2 0x1F2 SWAP1 PUSH2 0xCD2 JUMP JUMPDEST PUSH1 0x40 MLOAD DUP1 SWAP2 SUB SWAP1 REVERT JUMPDEST PUSH1 0x1 PUSH1 0x2 PUSH1 0x0 DUP3 DUP3 SLOAD PUSH2 0x20E SWAP2 SWAP1 PUSH2 0xD21 JUMP JUMPDEST SWAP3 POP POP DUP2 SWAP1 SSTORE POP PUSH1 0x0 PUSH1 0x1 PUSH1 0x0 PUSH1 0x2 SLOAD DUP2 MSTORE PUSH1 0x20 ADD SWAP1 DUP2 MSTORE PUSH1 0x20 ADD PUSH1 0x0 KECCAK256 SWAP1 POP DUP3 DUP2 PUSH1 0x4 ADD DUP2 SWAP1 SSTORE POP DUP2 DUP2 PUSH1 0x3 ADD SWAP1 DUP2 PUSH2 0x248 SWAP2 SWAP1 PUSH2 0xF61 JUMP JUMPDEST POP DUP5 DUP2 PUSH1 0x1 ADD SWAP1 DUP2 PUSH2 0x25A SWAP2 SWAP1 PUSH2 0xF61 JUMP JUMPDEST POP DUP4 DUP2 PUSH1 0x2 ADD SWAP1 DUP2 PUSH2 0x26C SWAP2 SWAP1 PUSH2 0xF61 JUMP JUMPDEST POP PUSH1 0x2 SLOAD DUP2 PUSH1 0x0 ADD DUP2 SWAP1 SSTORE POP PUSH1 0x1 DUP2 PUSH1 0x5 ADD PUSH1 0x14 PUSH2 0x100 EXP DUP2 SLOAD DUP2 PUSH1 0xFF MUL NOT AND SWAP1 DUP4 ISZERO ISZERO MUL OR SWAP1 SSTORE POP CALLER DUP2 PUSH1 0x5 ADD PUSH1 0x0 PUSH2 0x100 EXP DUP2 SLOAD DUP2 PUSH20 0xFFFFFFFFFFFFFFFFFFFFFFFFFFFFFFFFFFFFFFFF MUL NOT AND SWAP1 DUP4 PUSH20 0xFFFFFFFFFFFFFFFFFFFFFFFFFFFFFFFFFFFFFFFF AND MUL OR SWAP1 SSTORE POP PUSH32 0x395F3C9C88DAFE0428690F92132AB7D5CFBB62F439F72CCC4CCC415B8F9AB519 PUSH1 0x40 MLOAD PUSH1 0x40 MLOAD DUP1 SWAP2 SUB SWAP1 LOG1 POP POP POP POP POP JUMP JUMPDEST PUSH1 0x0 PUSH1 0x1 PUSH1 0x0 DUP4 DUP2 MSTORE PUSH1 0x20 ADD SWAP1 DUP2 MSTORE PUSH1 0x20 ADD PUSH1 0x0 KECCAK256 SWAP1 POP DUP1 PUSH1 0x4 ADD SLOAD CALLVALUE LT ISZERO PUSH2 0x369 JUMPI PUSH1 0x40 MLOAD PUSH32 0x8C379A000000000000000000000000000000000000000000000000000000000 DUP2 MSTORE PUSH1 0x4 ADD PUSH2 0x360 SWAP1 PUSH2 0x107F JUMP JUMPDEST PUSH1 0x40 MLOAD DUP1 SWAP2 SUB SWAP1 REVERT JUMPDEST DUP1 PUSH1 0x4 ADD SLOAD PUSH8 0xDE0B6B3A7640000 PUSH2 0x381 SWAP2 SWAP1 PUSH2 0xD21 JUMP JUMPDEST CALLVALUE EQ PUSH2 0x3C2 JUMPI PUSH1 0x40 MLOAD PUSH32 0x8C379A000000000000000000000000000000000000000000000000000000000 DUP2 MSTORE PUSH1 0x4 ADD PUSH2 0x3B9 SWAP1 PUSH2 0x10EB JUMP JUMPDEST PUSH1 0x40 MLOAD DUP1 SWAP2 SUB SWAP1 REVERT JUMPDEST DUP1 PUSH1 0x4 ADD SLOAD CALLVALUE PUSH2 0x3D2 SWAP2 SWAP1 PUSH2 0x110B JUMP JUMPDEST POP PUSH1 0x0 DUP2 PUSH1 0x5 ADD PUSH1 0x0 SWAP1 SLOAD SWAP1 PUSH2 0x100 EXP SWAP1 DIV PUSH20 0xFFFFFFFFFFFFFFFFFFFFFFFFFFFFFFFFFFFFFFFF AND PUSH20 0xFFFFFFFFFFFFFFFFFFFFFFFFFFFFFFFFFFFFFFFF AND DUP3 PUSH1 0x4 ADD SLOAD PUSH1 0x40 MLOAD PUSH2 0x421 SWAP1 PUSH2 0x1170 JUMP JUMPDEST PUSH1 0x0 PUSH1 0x40 MLOAD DUP1 DUP4 SUB DUP2 DUP6 DUP8 GAS CALL SWAP3 POP POP POP RETURNDATASIZE DUP1 PUSH1 0x0 DUP2 EQ PUSH2 0x45E JUMPI PUSH1 0x40 MLOAD SWAP2 POP PUSH1 0x1F NOT PUSH1 0x3F RETURNDATASIZE ADD AND DUP3 ADD PUSH1 0x40 MSTORE RETURNDATASIZE DUP3 MSTORE RETURNDATASIZE PUSH1 0x0 PUSH1 0x20 DUP5 ADD RETURNDATACOPY PUSH2 0x463 JUMP JUMPDEST PUSH1 0x60 SWAP2 POP JUMPDEST POP POP SWAP1 POP DUP1 PUSH2 0x4A7 JUMPI PUSH1 0x40 MLOAD PUSH32 0x8C379A000000000000000000000000000000000000000000000000000000000 DUP2 MSTORE PUSH1 0x4 ADD PUSH2 0x49E SWAP1 PUSH2 0x11D1 JUMP JUMPDEST PUSH1 0x40 MLOAD DUP1 SWAP2 SUB SWAP1 REVERT JUMPDEST POP POP POP JUMP JUMPDEST PUSH2 0x4B4 PUSH2 0x71A JUMP JUMPDEST PUSH1 0x0 PUSH1 0x1 PUSH1 0x0 DUP5 DUP2 MSTORE PUSH1 0x20 ADD SWAP1 DUP2 MSTORE PUSH1 0x20 ADD PUSH1 0x0 KECCAK256 SWAP1 POP DUP1 PUSH1 0x40 MLOAD DUP1 PUSH1 0xE0 ADD PUSH1 0x40 MSTORE SWAP1 DUP2 PUSH1 0x0 DUP3 ADD SLOAD DUP2 MSTORE PUSH1 0x20 ADD PUSH1 0x1 DUP3 ADD DUP1 SLOAD PUSH2 0x4F1 SWAP1 PUSH2 0xD84 JUMP JUMPDEST DUP1 PUSH1 0x1F ADD PUSH1 0x20 DUP1 SWAP2 DIV MUL PUSH1 0x20 ADD PUSH1 0x40 MLOAD SWAP1 DUP2 ADD PUSH1 0x40 MSTORE DUP1 SWAP3 SWAP2 SWAP1 DUP2 DUP2 MSTORE PUSH1 0x20 ADD DUP3 DUP1 SLOAD PUSH2 0x51D SWAP1 PUSH2 0xD84 JUMP JUMPDEST DUP1 ISZERO PUSH2 0x56A JUMPI DUP1 PUSH1 0x1F LT PUSH2 0x53F JUMPI PUSH2 0x100 DUP1 DUP4 SLOAD DIV MUL DUP4 MSTORE SWAP2 PUSH1 0x20 ADD SWAP2 PUSH2 0x56A JUMP JUMPDEST DUP3 ADD SWAP2 SWAP1 PUSH1 0x0 MSTORE PUSH1 0x20 PUSH1 0x0 KECCAK256 SWAP1 JUMPDEST DUP2 SLOAD DUP2 MSTORE SWAP1 PUSH1 0x1 ADD SWAP1 PUSH1 0x20 ADD DUP1 DUP4 GT PUSH2 0x54D JUMPI DUP3 SWAP1 SUB PUSH1 0x1F AND DUP3 ADD SWAP2 JUMPDEST POP POP POP POP POP DUP2 MSTORE PUSH1 0x20 ADD PUSH1 0x2 DUP3 ADD DUP1 SLOAD PUSH2 0x583 SWAP1 PUSH2 0xD84 JUMP JUMPDEST DUP1 PUSH1 0x1F ADD PUSH1 0x20 DUP1 SWAP2 DIV MUL PUSH1 0x20 ADD PUSH1 0x40 MLOAD SWAP1 DUP2 ADD PUSH1 0x40 MSTORE DUP1 SWAP3 SWAP2 SWAP1 DUP2 DUP2 MSTORE PUSH1 0x20 ADD DUP3 DUP1 SLOAD PUSH2 0x5AF SWAP1 PUSH2 0xD84 JUMP JUMPDEST DUP1 ISZERO PUSH2 0x5FC JUMPI DUP1 PUSH1 0x1F LT PUSH2 0x5D1 JUMPI PUSH2 0x100 DUP1 DUP4 SLOAD DIV MUL DUP4 MSTORE SWAP2 PUSH1 0x20 ADD SWAP2 PUSH2 0x5FC JUMP JUMPDEST DUP3 ADD SWAP2 SWAP1 PUSH1 0x0 MSTORE PUSH1 0x20 PUSH1 0x0 KECCAK256 SWAP1 JUMPDEST DUP2 SLOAD DUP2 MSTORE SWAP1 PUSH1 0x1 ADD SWAP1 PUSH1 0x20 ADD DUP1 DUP4 GT PUSH2 0x5DF JUMPI DUP3 SWAP1 SUB PUSH1 0x1F AND DUP3 ADD SWAP2 JUMPDEST POP POP POP POP POP DUP2 MSTORE PUSH1 0x20 ADD PUSH1 0x3 DUP3 ADD DUP1 SLOAD PUSH2 0x615 SWAP1 PUSH2 0xD84 JUMP JUMPDEST DUP1 PUSH1 0x1F ADD PUSH1 0x20 DUP1 SWAP2 DIV MUL PUSH1 0x20 ADD PUSH1 0x40 MLOAD SWAP1 DUP2 ADD PUSH1 0x40 MSTORE DUP1 SWAP3 SWAP2 SWAP1 DUP2 DUP2 MSTORE PUSH1 0x20 ADD DUP3 DUP1 SLOAD PUSH2 0x641 SWAP1 PUSH2 0xD84 JUMP JUMPDEST DUP1 ISZERO PUSH2 0x68E JUMPI DUP1 PUSH1 0x1F LT PUSH2 0x663 JUMPI PUSH2 0x100 DUP1 DUP4 SLOAD DIV MUL DUP4 MSTORE SWAP2 PUSH1 0x20 ADD SWAP2 PUSH2 0x68E JUMP JUMPDEST DUP3 ADD SWAP2 SWAP1 PUSH1 0x0 MSTORE PUSH1 0x20 PUSH1 0x0 KECCAK256 SWAP1 JUMPDEST DUP2 SLOAD DUP2 MSTORE SWAP1 PUSH1 0x1 ADD SWAP1 PUSH1 0x20 ADD DUP1 DUP4 GT PUSH2 0x671 JUMPI DUP3 SWAP1 SUB PUSH1 0x1F AND DUP3 ADD SWAP2 JUMPDEST POP POP POP POP POP DUP2 MSTORE PUSH1 0x20 ADD PUSH1 0x4 DUP3 ADD SLOAD DUP2 MSTORE PUSH1 0x20 ADD PUSH1 0x5 DUP3 ADD PUSH1 0x0 SWAP1 SLOAD SWAP1 PUSH2 0x100 EXP SWAP1 DIV PUSH20 0xFFFFFFFFFFFFFFFFFFFFFFFFFFFFFFFFFFFFFFFF AND PUSH20 0xFFFFFFFFFFFFFFFFFFFFFFFFFFFFFFFFFFFFFFFF AND PUSH20 0xFFFFFFFFFFFFFFFFFFFFFFFFFFFFFFFFFFFFFFFF AND DUP2 MSTORE PUSH1 0x20 ADD PUSH1 0x5 DUP3 ADD PUSH1 0x14 SWAP1 SLOAD SWAP1 PUSH2 0x100 EXP SWAP1 DIV PUSH1 0xFF AND ISZERO ISZERO ISZERO ISZERO DUP2 MSTORE POP POP SWAP2 POP POP SWAP2 SWAP1 POP JUMP JUMPDEST PUSH1 0x40 MLOAD DUP1 PUSH1 0xE0 ADD PUSH1 0x40 MSTORE DUP1 PUSH1 0x0 DUP2 MSTORE PUSH1 0x20 ADD PUSH1 0x60 DUP2 MSTORE PUSH1 0x20 ADD PUSH1 0x60 DUP2 MSTORE PUSH1 0x20 ADD PUSH1 0x60 DUP2 MSTORE PUSH1 0x20 ADD PUSH1 0x0 DUP2 MSTORE PUSH1 0x20 ADD PUSH1 0x0 PUSH20 0xFFFFFFFFFFFFFFFFFFFFFFFFFFFFFFFFFFFFFFFF AND DUP2 MSTORE PUSH1 0x20 ADD PUSH1 0x0 ISZERO ISZERO DUP2 MSTORE POP SWAP1 JUMP JUMPDEST PUSH1 0x0 PUSH1 0x40 MLOAD SWAP1 POP SWAP1 JUMP JUMPDEST PUSH1 0x0 DUP1 REVERT JUMPDEST PUSH1 0x0 DUP1 REVERT JUMPDEST PUSH1 0x0 DUP1 REVERT JUMPDEST PUSH1 0x0 DUP1 REVERT JUMPDEST PUSH1 0x0 PUSH1 0x1F NOT PUSH1 0x1F DUP4 ADD AND SWAP1 POP SWAP2 SWAP1 POP JUMP JUMPDEST PUSH32 0x4E487B7100000000000000000000000000000000000000000000000000000000 PUSH1 0x0 MSTORE PUSH1 0x41 PUSH1 0x4 MSTORE PUSH1 0x24 PUSH1 0x0 REVERT JUMPDEST PUSH2 0x7D6 DUP3 PUSH2 0x78D JUMP JUMPDEST DUP2 ADD DUP2 DUP2 LT PUSH8 0xFFFFFFFFFFFFFFFF DUP3 GT OR ISZERO PUSH2 0x7F5 JUMPI PUSH2 0x7F4 PUSH2 0x79E JUMP JUMPDEST JUMPDEST DUP1 PUSH1 0x40 MSTORE POP POP POP JUMP JUMPDEST PUSH1 0x0 PUSH2 0x808 PUSH2 0x76F JUMP JUMPDEST SWAP1 POP PUSH2 0x814 DUP3 DUP3 PUSH2 0x7CD JUMP JUMPDEST SWAP2 SWAP1 POP JUMP JUMPDEST PUSH1 0x0 PUSH8 0xFFFFFFFFFFFFFFFF DUP3 GT ISZERO PUSH2 0x834 JUMPI PUSH2 0x833 PUSH2 0x79E JUMP JUMPDEST JUMPDEST PUSH2 0x83D DUP3 PUSH2 0x78D JUMP JUMPDEST SWAP1 POP PUSH1 0x20 DUP2 ADD SWAP1 POP SWAP2 SWAP1 POP JUMP JUMPDEST DUP3 DUP2 DUP4 CALLDATACOPY PUSH1 0x0 DUP4 DUP4 ADD MSTORE POP POP POP JUMP JUMPDEST PUSH1 0x0 PUSH2 0x86C PUSH2 0x867 DUP5 PUSH2 0x819 JUMP JUMPDEST PUSH2 0x7FE JUMP JUMPDEST SWAP1 POP DUP3 DUP2 MSTORE PUSH1 0x20 DUP2 ADD DUP5 DUP5 DUP5 ADD GT ISZERO PUSH2 0x888 JUMPI PUSH2 0x887 PUSH2 0x788 JUMP JUMPDEST JUMPDEST PUSH2 0x893 DUP5 DUP3 DUP6 PUSH2 0x84A JUMP JUMPDEST POP SWAP4 SWAP3 POP POP POP JUMP JUMPDEST PUSH1 0x0 DUP3 PUSH1 0x1F DUP4 ADD SLT PUSH2 0x8B0 JUMPI PUSH2 0x8AF PUSH2 0x783 JUMP JUMPDEST JUMPDEST DUP2 CALLDATALOAD PUSH2 0x8C0 DUP5 DUP3 PUSH1 0x20 DUP7 ADD PUSH2 0x859 JUMP JUMPDEST SWAP2 POP POP SWAP3 SWAP2 POP POP JUMP JUMPDEST PUSH1 0x0 DUP2 SWAP1 POP SWAP2 SWAP1 POP JUMP JUMPDEST PUSH2 0x8DC DUP2 PUSH2 0x8C9 JUMP JUMPDEST DUP2 EQ PUSH2 0x8E7 JUMPI PUSH1 0x0 DUP1 REVERT JUMPDEST POP JUMP JUMPDEST PUSH1 0x0 DUP2 CALLDATALOAD SWAP1 POP PUSH2 0x8F9 DUP2 PUSH2 0x8D3 JUMP JUMPDEST SWAP3 SWAP2 POP POP JUMP JUMPDEST PUSH1 0x0 DUP1 PUSH1 0x0 DUP1 PUSH1 0x80 DUP6 DUP8 SUB SLT ISZERO PUSH2 0x919 JUMPI PUSH2 0x918 PUSH2 0x779 JUMP JUMPDEST JUMPDEST PUSH1 0x0 DUP6 ADD CALLDATALOAD PUSH8 0xFFFFFFFFFFFFFFFF DUP2 GT ISZERO PUSH2 0x937 JUMPI PUSH2 0x936 PUSH2 0x77E JUMP JUMPDEST JUMPDEST PUSH2 0x943 DUP8 DUP3 DUP9 ADD PUSH2 0x89B JUMP JUMPDEST SWAP5 POP POP PUSH1 0x20 DUP6 ADD CALLDATALOAD PUSH8 0xFFFFFFFFFFFFFFFF DUP2 GT ISZERO PUSH2 0x964 JUMPI PUSH2 0x963 PUSH2 0x77E JUMP JUMPDEST JUMPDEST PUSH2 0x970 DUP8 DUP3 DUP9 ADD PUSH2 0x89B JUMP JUMPDEST SWAP4 POP POP PUSH1 0x40 PUSH2 0x981 DUP8 DUP3 DUP9 ADD PUSH2 0x8EA JUMP JUMPDEST SWAP3 POP POP PUSH1 0x60 DUP6 ADD CALLDATALOAD PUSH8 0xFFFFFFFFFFFFFFFF DUP2 GT ISZERO PUSH2 0x9A2 JUMPI PUSH2 0x9A1 PUSH2 0x77E JUMP JUMPDEST JUMPDEST PUSH2 0x9AE DUP8 DUP3 DUP9 ADD PUSH2 0x89B JUMP JUMPDEST SWAP2 POP POP SWAP3 SWAP6 SWAP2 SWAP5 POP SWAP3 POP JUMP JUMPDEST PUSH1 0x0 PUSH1 0x20 DUP3 DUP5 SUB SLT ISZERO PUSH2 0x9D0 JUMPI PUSH2 0x9CF PUSH2 0x779 JUMP JUMPDEST JUMPDEST PUSH1 0x0 PUSH2 0x9DE DUP5 DUP3 DUP6 ADD PUSH2 0x8EA JUMP JUMPDEST SWAP2 POP POP SWAP3 SWAP2 POP POP JUMP JUMPDEST PUSH2 0x9F0 DUP2 PUSH2 0x8C9 JUMP JUMPDEST DUP3 MSTORE POP POP JUMP JUMPDEST PUSH1 0x0 DUP2 MLOAD SWAP1 POP SWAP2 SWAP1 POP JUMP JUMPDEST PUSH1 0x0 DUP3 DUP3 MSTORE PUSH1 0x20 DUP3 ADD SWAP1 POP SWAP3 SWAP2 POP POP JUMP JUMPDEST PUSH1 0x0 JUMPDEST DUP4 DUP2 LT ISZERO PUSH2 0xA30 JUMPI DUP1 DUP3 ADD MLOAD DUP2 DUP5 ADD MSTORE PUSH1 0x20 DUP2 ADD SWAP1 POP PUSH2 0xA15 JUMP JUMPDEST PUSH1 0x0 DUP5 DUP5 ADD MSTORE POP POP POP POP JUMP JUMPDEST PUSH1 0x0 PUSH2 0xA47 DUP3 PUSH2 0x9F6 JUMP JUMPDEST PUSH2 0xA51 DUP2 DUP6 PUSH2 0xA01 JUMP JUMPDEST SWAP4 POP PUSH2 0xA61 DUP2 DUP6 PUSH1 0x20 DUP7 ADD PUSH2 0xA12 JUMP JUMPDEST PUSH2 0xA6A DUP2 PUSH2 0x78D JUMP JUMPDEST DUP5 ADD SWAP2 POP POP SWAP3 SWAP2 POP POP JUMP JUMPDEST PUSH1 0x0 PUSH20 0xFFFFFFFFFFFFFFFFFFFFFFFFFFFFFFFFFFFFFFFF DUP3 AND SWAP1 POP SWAP2 SWAP1 POP JUMP JUMPDEST PUSH1 0x0 PUSH2 0xAA0 DUP3 PUSH2 0xA75 JUMP JUMPDEST SWAP1 POP SWAP2 SWAP1 POP JUMP JUMPDEST PUSH2 0xAB0 DUP2 PUSH2 0xA95 JUMP JUMPDEST DUP3 MSTORE POP POP JUMP JUMPDEST PUSH1 0x0 DUP2 ISZERO ISZERO SWAP1 POP SWAP2 SWAP1 POP JUMP JUMPDEST PUSH2 0xACB DUP2 PUSH2 0xAB6 JUMP JUMPDEST DUP3 MSTORE POP POP JUMP JUMPDEST PUSH1 0x0 PUSH1 0xE0 DUP4 ADD PUSH1 0x0 DUP4 ADD MLOAD PUSH2 0xAE9 PUSH1 0x0 DUP7 ADD DUP3 PUSH2 0x9E7 JUMP JUMPDEST POP PUSH1 0x20 DUP4 ADD MLOAD DUP5 DUP3 SUB PUSH1 0x20 DUP7 ADD MSTORE PUSH2 0xB01 DUP3 DUP3 PUSH2 0xA3C JUMP JUMPDEST SWAP2 POP POP PUSH1 0x40 DUP4 ADD MLOAD DUP5 DUP3 SUB PUSH1 0x40 DUP7 ADD MSTORE PUSH2 0xB1B DUP3 DUP3 PUSH2 0xA3C JUMP JUMPDEST SWAP2 POP POP PUSH1 0x60 DUP4 ADD MLOAD DUP5 DUP3 SUB PUSH1 0x60 DUP7 ADD MSTORE PUSH2 0xB35 DUP3 DUP3 PUSH2 0xA3C JUMP JUMPDEST SWAP2 POP POP PUSH1 0x80 DUP4 ADD MLOAD PUSH2 0xB4A PUSH1 0x80 DUP7 ADD DUP3 PUSH2 0x9E7 JUMP JUMPDEST POP PUSH1 0xA0 DUP4 ADD MLOAD PUSH2 0xB5D PUSH1 0xA0 DUP7 ADD DUP3 PUSH2 0xAA7 JUMP JUMPDEST POP PUSH1 0xC0 DUP4 ADD MLOAD PUSH2 0xB70 PUSH1 0xC0 DUP7 ADD DUP3 PUSH2 0xAC2 JUMP JUMPDEST POP DUP1 SWAP2 POP POP SWAP3 SWAP2 POP POP JUMP JUMPDEST PUSH1 0x0 PUSH1 0x20 DUP3 ADD SWAP1 POP DUP2 DUP2 SUB PUSH1 0x0 DUP4 ADD MSTORE PUSH2 0xB95 DUP2 DUP5 PUSH2 0xAD1 JUMP JUMPDEST SWAP1 POP SWAP3 SWAP2 POP POP JUMP JUMPDEST PUSH1 0x0 DUP3 DUP3 MSTORE PUSH1 0x20 DUP3 ADD SWAP1 POP SWAP3 SWAP2 POP POP JUMP JUMPDEST PUSH32 0x4F6E6C79206F776E65722063616E20706572666F726D20746869730000000000 PUSH1 0x0 DUP3 ADD MSTORE POP JUMP JUMPDEST PUSH1 0x0 PUSH2 0xBE4 PUSH1 0x1B DUP4 PUSH2 0xB9D JUMP JUMPDEST SWAP2 POP PUSH2 0xBEF DUP3 PUSH2 0xBAE JUMP JUMPDEST PUSH1 0x20 DUP3 ADD SWAP1 POP SWAP2 SWAP1 POP JUMP JUMPDEST PUSH1 0x0 PUSH1 0x20 DUP3 ADD SWAP1 POP DUP2 DUP2 SUB PUSH1 0x0 DUP4 ADD MSTORE PUSH2 0xC13 DUP2 PUSH2 0xBD7 JUMP JUMPDEST SWAP1 POP SWAP2 SWAP1 POP JUMP JUMPDEST PUSH32 0x41646472657373207A65726F2064657465637465640000000000000000000000 PUSH1 0x0 DUP3 ADD MSTORE POP JUMP JUMPDEST PUSH1 0x0 PUSH2 0xC50 PUSH1 0x15 DUP4 PUSH2 0xB9D JUMP JUMPDEST SWAP2 POP PUSH2 0xC5B DUP3 PUSH2 0xC1A JUMP JUMPDEST PUSH1 0x20 DUP3 ADD SWAP1 POP SWAP2 SWAP1 POP JUMP JUMPDEST PUSH1 0x0 PUSH1 0x20 DUP3 ADD SWAP1 POP DUP2 DUP2 SUB PUSH1 0x0 DUP4 ADD MSTORE PUSH2 0xC7F DUP2 PUSH2 0xC43 JUMP JUMPDEST SWAP1 POP SWAP2 SWAP1 POP JUMP JUMPDEST PUSH32 0x416D6F756E74206D7573742062652067726561746572207468616E207A65726F PUSH1 0x0 DUP3 ADD MSTORE POP JUMP JUMPDEST PUSH1 0x0 PUSH2 0xCBC PUSH1 0x20 DUP4 PUSH2 0xB9D JUMP JUMPDEST SWAP2 POP PUSH2 0xCC7 DUP3 PUSH2 0xC86 JUMP JUMPDEST PUSH1 0x20 DUP3 ADD SWAP1 POP SWAP2 SWAP1 POP JUMP JUMPDEST PUSH1 0x0 PUSH1 0x20 DUP3 ADD SWAP1 POP DUP2 DUP2 SUB PUSH1 0x0 DUP4 ADD MSTORE PUSH2 0xCEB DUP2 PUSH2 0xCAF JUMP JUMPDEST SWAP1 POP SWAP2 SWAP1 POP JUMP JUMPDEST PUSH32 0x4E487B7100000000000000000000000000000000000000000000000000000000 PUSH1 0x0 MSTORE PUSH1 0x11 PUSH1 0x4 MSTORE PUSH1 0x24 PUSH1 0x0 REVERT JUMPDEST PUSH1 0x0 PUSH2 0xD2C DUP3 PUSH2 0x8C9 JUMP JUMPDEST SWAP2 POP PUSH2 0xD37 DUP4 PUSH2 0x8C9 JUMP JUMPDEST SWAP3 POP DUP3 DUP3 ADD SWAP1 POP DUP1 DUP3 GT ISZERO PUSH2 0xD4F JUMPI PUSH2 0xD4E PUSH2 0xCF2 JUMP JUMPDEST JUMPDEST SWAP3 SWAP2 POP POP JUMP JUMPDEST PUSH32 0x4E487B7100000000000000000000000000000000000000000000000000000000 PUSH1 0x0 MSTORE PUSH1 0x22 PUSH1 0x4 MSTORE PUSH1 0x24 PUSH1 0x0 REVERT JUMPDEST PUSH1 0x0 PUSH1 0x2 DUP3 DIV SWAP1 POP PUSH1 0x1 DUP3 AND DUP1 PUSH2 0xD9C JUMPI PUSH1 0x7F DUP3 AND SWAP2 POP JUMPDEST PUSH1 0x20 DUP3 LT DUP2 SUB PUSH2 0xDAF JUMPI PUSH2 0xDAE PUSH2 0xD55 JUMP JUMPDEST JUMPDEST POP SWAP2 SWAP1 POP JUMP JUMPDEST PUSH1 0x0 DUP2 SWAP1 POP DUP2 PUSH1 0x0 MSTORE PUSH1 0x20 PUSH1 0x0 KECCAK256 SWAP1 POP SWAP2 SWAP1 POP JUMP JUMPDEST PUSH1 0x0 PUSH1 0x20 PUSH1 0x1F DUP4 ADD DIV SWAP1 POP SWAP2 SWAP1 POP JUMP JUMPDEST PUSH1 0x0 DUP3 DUP3 SHL SWAP1 POP SWAP3 SWAP2 POP POP JUMP JUMPDEST PUSH1 0x0 PUSH1 0x8 DUP4 MUL PUSH2 0xE17 PUSH32 0xFFFFFFFFFFFFFFFFFFFFFFFFFFFFFFFFFFFFFFFFFFFFFFFFFFFFFFFFFFFFFFFF DUP3 PUSH2 0xDDA JUMP JUMPDEST PUSH2 0xE21 DUP7 DUP4 PUSH2 0xDDA JUMP JUMPDEST SWAP6 POP DUP1 NOT DUP5 AND SWAP4 POP DUP1 DUP7 AND DUP5 OR SWAP3 POP POP POP SWAP4 SWAP3 POP POP POP JUMP JUMPDEST PUSH1 0x0 DUP2 SWAP1 POP SWAP2 SWAP1 POP JUMP JUMPDEST PUSH1 0x0 PUSH2 0xE5E PUSH2 0xE59 PUSH2 0xE54 DUP5 PUSH2 0x8C9 JUMP JUMPDEST PUSH2 0xE39 JUMP JUMPDEST PUSH2 0x8C9 JUMP JUMPDEST SWAP1 POP SWAP2 SWAP1 POP JUMP JUMPDEST PUSH1 0x0 DUP2 SWAP1 POP SWAP2 SWAP1 POP JUMP JUMPDEST PUSH2 0xE78 DUP4 PUSH2 0xE43 JUMP JUMPDEST PUSH2 0xE8C PUSH2 0xE84 DUP3 PUSH2 0xE65 JUMP JUMPDEST DUP5 DUP5 SLOAD PUSH2 0xDE7 JUMP JUMPDEST DUP3 SSTORE POP POP POP POP JUMP JUMPDEST PUSH1 0x0 SWAP1 JUMP JUMPDEST PUSH2 0xEA1 PUSH2 0xE94 JUMP JUMPDEST PUSH2 0xEAC DUP2 DUP5 DUP5 PUSH2 0xE6F JUMP JUMPDEST POP POP POP JUMP JUMPDEST JUMPDEST DUP2 DUP2 LT ISZERO PUSH2 0xED0 JUMPI PUSH2 0xEC5 PUSH1 0x0 DUP3 PUSH2 0xE99 JUMP JUMPDEST PUSH1 0x1 DUP2 ADD SWAP1 POP PUSH2 0xEB2 JUMP JUMPDEST POP POP JUMP JUMPDEST PUSH1 0x1F DUP3 GT ISZERO PUSH2 0xF15 JUMPI PUSH2 0xEE6 DUP2 PUSH2 0xDB5 JUMP JUMPDEST PUSH2 0xEEF DUP5 PUSH2 0xDCA JUMP JUMPDEST DUP2 ADD PUSH1 0x20 DUP6 LT ISZERO PUSH2 0xEFE JUMPI DUP2 SWAP1 POP JUMPDEST PUSH2 0xF12 PUSH2 0xF0A DUP6 PUSH2 0xDCA JUMP JUMPDEST DUP4 ADD DUP3 PUSH2 0xEB1 JUMP JUMPDEST POP POP JUMPDEST POP POP POP JUMP JUMPDEST PUSH1 0x0 DUP3 DUP3 SHR SWAP1 POP SWAP3 SWAP2 POP POP JUMP JUMPDEST PUSH1 0x0 PUSH2 0xF38 PUSH1 0x0 NOT DUP5 PUSH1 0x8 MUL PUSH2 0xF1A JUMP JUMPDEST NOT DUP1 DUP4 AND SWAP2 POP POP SWAP3 SWAP2 POP POP JUMP JUMPDEST PUSH1 0x0 PUSH2 0xF51 DUP4 DUP4 PUSH2 0xF27 JUMP JUMPDEST SWAP2 POP DUP3 PUSH1 0x2 MUL DUP3 OR SWAP1 POP SWAP3 SWAP2 POP POP JUMP JUMPDEST PUSH2 0xF6A DUP3 PUSH2 0x9F6 JUMP JUMPDEST PUSH8 0xFFFFFFFFFFFFFFFF DUP2 GT ISZERO PUSH2 0xF83 JUMPI PUSH2 0xF82 PUSH2 0x79E JUMP JUMPDEST JUMPDEST PUSH2 0xF8D DUP3 SLOAD PUSH2 0xD84 JUMP JUMPDEST PUSH2 0xF98 DUP3 DUP3 DUP6 PUSH2 0xED4 JUMP JUMPDEST PUSH1 0x0 PUSH1 0x20 SWAP1 POP PUSH1 0x1F DUP4 GT PUSH1 0x1 DUP2 EQ PUSH2 0xFCB JUMPI PUSH1 0x0 DUP5 ISZERO PUSH2 0xFB9 JUMPI DUP3 DUP8 ADD MLOAD SWAP1 POP JUMPDEST PUSH2 0xFC3 DUP6 DUP3 PUSH2 0xF45 JUMP JUMPDEST DUP7 SSTORE POP PUSH2 0x102B JUMP JUMPDEST PUSH1 0x1F NOT DUP5 AND PUSH2 0xFD9 DUP7 PUSH2 0xDB5 JUMP JUMPDEST PUSH1 0x0 JUMPDEST DUP3 DUP2 LT ISZERO PUSH2 0x1001 JUMPI DUP5 DUP10 ADD MLOAD DUP3 SSTORE PUSH1 0x1 DUP3 ADD SWAP2 POP PUSH1 0x20 DUP6 ADD SWAP5 POP PUSH1 0x20 DUP2 ADD SWAP1 POP PUSH2 0xFDC JUMP JUMPDEST DUP7 DUP4 LT ISZERO PUSH2 0x101E JUMPI DUP5 DUP10 ADD MLOAD PUSH2 0x101A PUSH1 0x1F DUP10 AND DUP3 PUSH2 0xF27 JUMP JUMPDEST DUP4 SSTORE POP JUMPDEST PUSH1 0x1 PUSH1 0x2 DUP9 MUL ADD DUP9 SSTORE POP POP POP JUMPDEST POP POP POP POP POP POP JUMP JUMPDEST PUSH32 0x696E73756666696369656E7420616D6F756E7400000000000000000000000000 PUSH1 0x0 DUP3 ADD MSTORE POP JUMP JUMPDEST PUSH1 0x0 PUSH2 0x1069 PUSH1 0x13 DUP4 PUSH2 0xB9D JUMP JUMPDEST SWAP2 POP PUSH2 0x1074 DUP3 PUSH2 0x1033 JUMP JUMPDEST PUSH1 0x20 DUP3 ADD SWAP1 POP SWAP2 SWAP1 POP JUMP JUMPDEST PUSH1 0x0 PUSH1 0x20 DUP3 ADD SWAP1 POP DUP2 DUP2 SUB PUSH1 0x0 DUP4 ADD MSTORE PUSH2 0x1098 DUP2 PUSH2 0x105C JUMP JUMPDEST SWAP1 POP SWAP2 SWAP1 POP JUMP JUMPDEST PUSH32 0x4D7573742070617920726571756972656420616D6F756E740000000000000000 PUSH1 0x0 DUP3 ADD MSTORE POP JUMP JUMPDEST PUSH1 0x0 PUSH2 0x10D5 PUSH1 0x18 DUP4 PUSH2 0xB9D JUMP JUMPDEST SWAP2 POP PUSH2 0x10E0 DUP3 PUSH2 0x109F JUMP JUMPDEST PUSH1 0x20 DUP3 ADD SWAP1 POP SWAP2 SWAP1 POP JUMP JUMPDEST PUSH1 0x0 PUSH1 0x20 DUP3 ADD SWAP1 POP DUP2 DUP2 SUB PUSH1 0x0 DUP4 ADD MSTORE PUSH2 0x1104 DUP2 PUSH2 0x10C8 JUMP JUMPDEST SWAP1 POP SWAP2 SWAP1 POP JUMP JUMPDEST PUSH1 0x0 PUSH2 0x1116 DUP3 PUSH2 0x8C9 JUMP JUMPDEST SWAP2 POP PUSH2 0x1121 DUP4 PUSH2 0x8C9 JUMP JUMPDEST SWAP3 POP DUP3 DUP3 SUB SWAP1 POP DUP2 DUP2 GT ISZERO PUSH2 0x1139 JUMPI PUSH2 0x1138 PUSH2 0xCF2 JUMP JUMPDEST JUMPDEST SWAP3 SWAP2 POP POP JUMP JUMPDEST PUSH1 0x0 DUP2 SWAP1 POP SWAP3 SWAP2 POP POP JUMP JUMPDEST POP JUMP JUMPDEST PUSH1 0x0 PUSH2 0x115A PUSH1 0x0 DUP4 PUSH2 0x113F JUMP JUMPDEST SWAP2 POP PUSH2 0x1165 DUP3 PUSH2 0x114A JUMP JUMPDEST PUSH1 0x0 DUP3 ADD SWAP1 POP SWAP2 SWAP1 POP JUMP JUMPDEST PUSH1 0x0 PUSH2 0x117B DUP3 PUSH2 0x114D JUMP JUMPDEST SWAP2 POP DUP2 SWAP1 POP SWAP2 SWAP1 POP JUMP JUMPDEST PUSH32 0x4661696C65640000000000000000000000000000000000000000000000000000 PUSH1 0x0 DUP3 ADD MSTORE POP JUMP JUMPDEST PUSH1 0x0 PUSH2 0x11BB PUSH1 0x6 DUP4 PUSH2 0xB9D JUMP JUMPDEST SWAP2 POP PUSH2 0x11C6 DUP3 PUSH2 0x1185 JUMP JUMPDEST PUSH1 0x20 DUP3 ADD SWAP1 POP SWAP2 SWAP1 POP JUMP JUMPDEST PUSH1 0x0 PUSH1 0x20 DUP3 ADD SWAP1 POP DUP2 DUP2 SUB PUSH1 0x0 DUP4 ADD MSTORE PUSH2 0x11EA DUP2 PUSH2 0x11AE JUMP JUMPDEST SWAP1 POP SWAP2 SWAP1 POP JUMP INVALID LOG2 PUSH5 0x6970667358 0x22 SLT KECCAK256 PUSH30 0x8578EA952A43E08C751F047A17E887DE7F1F4C5D0A534C362CC5F6D3BFC8 0xC6 PUSH5 0x736F6C6343 STOP ADDMOD XOR STOP CALLER "
        },
        "methodIdentifiers": {
          "buyHouse(uint256)": "eddc4269",
          "checkHouseList(uint256)": "ef4483b9",
          "listHouse(string,string,uint256,string)": "24b7e0d2"
        }
      }
    }
  }
}