{
  "_format": "hh-sol-artifact-1",
  "contractName": "Real_estate",
  "sourceName": "contracts/Real_Estate.sol",
  "abi": [
    {
      "inputs": [],
      "stateMutability": "nonpayable",
      "type": "constructor"
    },
    {
      "anonymous": false,
      "inputs": [],
      "name": "houseListedForSale",
      "type": "event"
    },
    {
      "anonymous": false,
      "inputs": [],
      "name": "houseSold",
      "type": "event"
    },
    {
      "inputs": [
        {
          "internalType": "uint256",
          "name": "_id",
          "type": "uint256"
        }
      ],
      "name": "buyHouse",
      "outputs": [],
      "stateMutability": "payable",
      "type": "function"
    },
    {
      "inputs": [
        {
          "internalType": "uint256",
          "name": "_id",
          "type": "uint256"
        }
      ],
      "name": "checkHouseList",
      "outputs": [
        {
          "components": [
            {
              "internalType": "uint256",
              "name": "id",
              "type": "uint256"
            },
            {
              "internalType": "string",
              "name": "Name",
              "type": "string"
            },
            {
              "internalType": "string",
              "name": "Location",
              "type": "string"
            },
            {
              "internalType": "string",
              "name": "houseType",
              "type": "string"
            },
            {
              "internalType": "uint256",
              "name": "amount",
              "type": "uint256"
            },
            {
              "internalType": "address",
              "name": "owner",
              "type": "address"
            },
            {
              "internalType": "bool",
              "name": "isAvailable",
              "type": "bool"
            }
          ],
          "internalType": "struct Real_estate.House",
          "name": "",
          "type": "tuple"
        }
      ],
      "stateMutability": "view",
      "type": "function"
    },
    {
      "inputs": [
        {
          "internalType": "string",
          "name": "_name",
          "type": "string"
        },
        {
          "internalType": "string",
          "name": "_location",
          "type": "string"
        },
        {
          "internalType": "uint256",
          "name": "_amount",
          "type": "uint256"
        },
        {
          "internalType": "string",
          "name": "_houseType",
          "type": "string"
        }
      ],
      "name": "listHouse",
      "outputs": [],
      "stateMutability": "nonpayable",
      "type": "function"
    }
  ],
  "bytecode": "0x608060405234801561001057600080fd5b50336000806101000a81548173ffffffffffffffffffffffffffffffffffffffff021916908373ffffffffffffffffffffffffffffffffffffffff160217905550611227806100606000396000f3fe6080604052600436106100345760003560e01c806324b7e0d214610039578063eddc426914610062578063ef4483b91461007e575b600080fd5b34801561004557600080fd5b50610060600480360381019061005b91906108ff565b6100bb565b005b61007c600480360381019061007791906109ba565b61030b565b005b34801561008a57600080fd5b506100a560048036038101906100a091906109ba565b6104ac565b6040516100b29190610b7b565b60405180910390f35b60008054906101000a900473ffffffffffffffffffffffffffffffffffffffff1673ffffffffffffffffffffffffffffffffffffffff163373ffffffffffffffffffffffffffffffffffffffff1614610149576040517f08c379a000000000000000000000000000000000000000000000000000000000815260040161014090610bfa565b60405180910390fd5b600073ffffffffffffffffffffffffffffffffffffffff163373ffffffffffffffffffffffffffffffffffffffff16036101b8576040517f08c379a00000000000000000000000000000000000000000000000000000000081526004016101af90610c66565b60405180910390fd5b600082036101fb576040517f08c379a00000000000000000000000000000000000000000000000000000000081526004016101f290610cd2565b60405180910390fd5b60016002600082825461020e9190610d21565b9250508190555060006001600060025481526020019081526020016000209050828160040181905550818160030190816102489190610f61565b508481600101908161025a9190610f61565b508381600201908161026c9190610f61565b50600254816000018190555060018160050160146101000a81548160ff021916908315150217905550338160050160006101000a81548173ffffffffffffffffffffffffffffffffffffffff021916908373ffffffffffffffffffffffffffffffffffffffff1602179055507f395f3c9c88dafe0428690f92132ab7d5cfbb62f439f72ccc4ccc415b8f9ab51960405160405180910390a15050505050565b60006001600083815260200190815260200160002090508060040154341015610369576040517f08c379a00000000000000000000000000000000000000000000000000000000081526004016103609061107f565b60405180910390fd5b8060040154670de0b6b3a76400006103819190610d21565b34146103c2576040517f08c379a00000000000000000000000000000000000000000000000000000000081526004016103b9906110eb565b60405180910390fd5b8060040154346103d2919061110b565b5060008160050160009054906101000a900473ffffffffffffffffffffffffffffffffffffffff1673ffffffffffffffffffffffffffffffffffffffff16826004015460405161042190611170565b60006040518083038185875af1925050503d806000811461045e576040519150601f19603f3d011682016040523d82523d6000602084013e610463565b606091505b50509050806104a7576040517f08c379a000000000000000000000000000000000000000000000000000000000815260040161049e906111d1565b60405180910390fd5b505050565b6104b461071a565b6000600160008481526020019081526020016000209050806040518060e0016040529081600082015481526020016001820180546104f190610d84565b80601f016020809104026020016040519081016040528092919081815260200182805461051d90610d84565b801561056a5780601f1061053f5761010080835404028352916020019161056a565b820191906000526020600020905b81548152906001019060200180831161054d57829003601f168201915b5050505050815260200160028201805461058390610d84565b80601f01602080910402602001604051908101604052809291908181526020018280546105af90610d84565b80156105fc5780601f106105d1576101008083540402835291602001916105fc565b820191906000526020600020905b8154815290600101906020018083116105df57829003601f168201915b5050505050815260200160038201805461061590610d84565b80601f016020809104026020016040519081016040528092919081815260200182805461064190610d84565b801561068e5780601f106106635761010080835404028352916020019161068e565b820191906000526020600020905b81548152906001019060200180831161067157829003601f168201915b50505050508152602001600482015481526020016005820160009054906101000a900473ffffffffffffffffffffffffffffffffffffffff1673ffffffffffffffffffffffffffffffffffffffff1673ffffffffffffffffffffffffffffffffffffffff1681526020016005820160149054906101000a900460ff161515151581525050915050919050565b6040518060e001604052806000815260200160608152602001606081526020016060815260200160008152602001600073ffffffffffffffffffffffffffffffffffffffff1681526020016000151581525090565b6000604051905090565b600080fd5b600080fd5b600080fd5b600080fd5b6000601f19601f8301169050919050565b7f4e487b7100000000000000000000000000000000000000000000000000000000600052604160045260246000fd5b6107d68261078d565b810181811067ffffffffffffffff821117156107f5576107f461079e565b5b80604052505050565b600061080861076f565b905061081482826107cd565b919050565b600067ffffffffffffffff8211156108345761083361079e565b5b61083d8261078d565b9050602081019050919050565b82818337600083830152505050565b600061086c61086784610819565b6107fe565b90508281526020810184848401111561088857610887610788565b5b61089384828561084a565b509392505050565b600082601f8301126108b0576108af610783565b5b81356108c0848260208601610859565b91505092915050565b6000819050919050565b6108dc816108c9565b81146108e757600080fd5b50565b6000813590506108f9816108d3565b92915050565b6000806000806080858703121561091957610918610779565b5b600085013567ffffffffffffffff8111156109375761093661077e565b5b6109438782880161089b565b945050602085013567ffffffffffffffff8111156109645761096361077e565b5b6109708782880161089b565b9350506040610981878288016108ea565b925050606085013567ffffffffffffffff8111156109a2576109a161077e565b5b6109ae8782880161089b565b91505092959194509250565b6000602082840312156109d0576109cf610779565b5b60006109de848285016108ea565b91505092915050565b6109f0816108c9565b82525050565b600081519050919050565b600082825260208201905092915050565b60005b83811015610a30578082015181840152602081019050610a15565b60008484015250505050565b6000610a47826109f6565b610a518185610a01565b9350610a61818560208601610a12565b610a6a8161078d565b840191505092915050565b600073ffffffffffffffffffffffffffffffffffffffff82169050919050565b6000610aa082610a75565b9050919050565b610ab081610a95565b82525050565b60008115159050919050565b610acb81610ab6565b82525050565b600060e083016000830151610ae960008601826109e7565b5060208301518482036020860152610b018282610a3c565b91505060408301518482036040860152610b1b8282610a3c565b91505060608301518482036060860152610b358282610a3c565b9150506080830151610b4a60808601826109e7565b5060a0830151610b5d60a0860182610aa7565b5060c0830151610b7060c0860182610ac2565b508091505092915050565b60006020820190508181036000830152610b958184610ad1565b905092915050565b600082825260208201905092915050565b7f4f6e6c79206f776e65722063616e20706572666f726d20746869730000000000600082015250565b6000610be4601b83610b9d565b9150610bef82610bae565b602082019050919050565b60006020820190508181036000830152610c1381610bd7565b9050919050565b7f41646472657373207a65726f2064657465637465640000000000000000000000600082015250565b6000610c50601583610b9d565b9150610c5b82610c1a565b602082019050919050565b60006020820190508181036000830152610c7f81610c43565b9050919050565b7f416d6f756e74206d7573742062652067726561746572207468616e207a65726f600082015250565b6000610cbc602083610b9d565b9150610cc782610c86565b602082019050919050565b60006020820190508181036000830152610ceb81610caf565b9050919050565b7f4e487b7100000000000000000000000000000000000000000000000000000000600052601160045260246000fd5b6000610d2c826108c9565b9150610d37836108c9565b9250828201905080821115610d4f57610d4e610cf2565b5b92915050565b7f4e487b7100000000000000000000000000000000000000000000000000000000600052602260045260246000fd5b60006002820490506001821680610d9c57607f821691505b602082108103610daf57610dae610d55565b5b50919050565b60008190508160005260206000209050919050565b60006020601f8301049050919050565b600082821b905092915050565b600060088302610e177fffffffffffffffffffffffffffffffffffffffffffffffffffffffffffffffff82610dda565b610e218683610dda565b95508019841693508086168417925050509392505050565b6000819050919050565b6000610e5e610e59610e54846108c9565b610e39565b6108c9565b9050919050565b6000819050919050565b610e7883610e43565b610e8c610e8482610e65565b848454610de7565b825550505050565b600090565b610ea1610e94565b610eac818484610e6f565b505050565b5b81811015610ed057610ec5600082610e99565b600181019050610eb2565b5050565b601f821115610f1557610ee681610db5565b610eef84610dca565b81016020851015610efe578190505b610f12610f0a85610dca565b830182610eb1565b50505b505050565b600082821c905092915050565b6000610f3860001984600802610f1a565b1980831691505092915050565b6000610f518383610f27565b9150826002028217905092915050565b610f6a826109f6565b67ffffffffffffffff811115610f8357610f8261079e565b5b610f8d8254610d84565b610f98828285610ed4565b600060209050601f831160018114610fcb5760008415610fb9578287015190505b610fc38582610f45565b86555061102b565b601f198416610fd986610db5565b60005b8281101561100157848901518255600182019150602085019450602081019050610fdc565b8683101561101e578489015161101a601f891682610f27565b8355505b6001600288020188555050505b505050505050565b7f696e73756666696369656e7420616d6f756e7400000000000000000000000000600082015250565b6000611069601383610b9d565b915061107482611033565b602082019050919050565b600060208201905081810360008301526110988161105c565b9050919050565b7f4d7573742070617920726571756972656420616d6f756e740000000000000000600082015250565b60006110d5601883610b9d565b91506110e08261109f565b602082019050919050565b60006020820190508181036000830152611104816110c8565b9050919050565b6000611116826108c9565b9150611121836108c9565b925082820390508181111561113957611138610cf2565b5b92915050565b600081905092915050565b50565b600061115a60008361113f565b91506111658261114a565b600082019050919050565b600061117b8261114d565b9150819050919050565b7f4661696c65640000000000000000000000000000000000000000000000000000600082015250565b60006111bb600683610b9d565b91506111c682611185565b602082019050919050565b600060208201905081810360008301526111ea816111ae565b905091905056fea26469706673582212207d8578ea952a43e08c751f047a17e887de7f1f4c5d0a534c362cc5f6d3bfc8c664736f6c63430008180033",
  "linkReferences": {},
  "deployedLinkReferences": {}
}